:0400000083EF00F09A
:100008004D82FACF01F0FBCF02F0E9CF03F0EACF3F
:1000180004F0E1CF05F0E2CF06F0D9CF07F0DACF50
:1000280008F0F3CF09F0F4CF0AF0F6CF0BF0F7CFD2
:100038000CF0F8CF0DF0F5CF0EF04DC00FF04EC01C
:1000480010F04FC011F050C012F0F2B8F2A203D075
:10005800FDEC0AF02ED0F0B6F0A003D0C1EC0AF007
:1000680028D0F0B8F0A203D0F9EC0AF022D0F2B60A
:10007800F2A003D00EEC0BF01CD0F2AC1AD09DB855
:100088009EA808D001D815D00500FA6E4350FD6E21
:1000980044500AD09DBA9EAA0CD001D80AD00500B7
:1000A800FA6E4150FD6E4250FE6EF850FF6EFA50E7
:1000B800120012C050F011C04FF010C04EF00FC027
:1000C8004DF00EC0F5FF0DC0F8FF0CC0F7FF0BC0D8
:1000D800F6FF0AC0F4FF09C0F3FF08C0DAFF07C043
:1000E800D9FF06C0E2FF05C0E1FF04C0EAFF03C074
:1000F800E9FF02C0FBFF01C0FAFF4D9211001DEF9E
:1001080009F00BEC03F020EEB2F0DECFD2F0DDCF39
:10011800D3F00001D21FD31FD24BD32B20EEB0F067
:10012800DECFD4F0DDCFD5F0D890D437D537D41F73
:10013800D51FD44BD52B20EEB6F0DECFD6F0DDCFD1
:10014800D7F0D890D637D737AEC01BF0AFC01CF069
:10015800FF0E1E6EFD0E1D6E14EC0AF01BC0D8F0CB
:100168001CC0D9F00001D651D827D751D923B8C01F
:100178001BF0B9C01CF0000E1E6E030E1D6E14ECB1
:100188000AF01B500001D8271C50D923D451D82776
:10019800D551D923D251D827D351D923B451D825F1
:1001A800216EB551D921226E7EEC09F021C0EEF006
:1001B80022C0EFF023C0F0F0400E0001C16F030E23
:1001C800C26F460EC36F000E2A6EFA0E2B6E440ED7
:1001D8002C6E400E1E6E830E1F6E450E206EEEC0F6
:1001E8001BF0EFC01CF0F0C01DF0DEEC04F01BC0EB
:1001F80027F01CC028F01DC029F0B4EC05F027C07A
:10020800BEF028C0BFF029C0C0F0A8EC06F0BEC000
:10021800EBF0BFC0ECF0C0C0EDF0EBC01BF0ECC0E1
:100228001CF0EDC01DF0000E1E6E7A0E1F6EC40E7F
:10023800206EDEEC04F01BC0EEF01CC0EFF01DC019
:10024800F0F0000E0001F16F000EF26F050EF2657E
:1002580001D03BD0F251020DAE0EF324D96E000E40
:10026800F420DA6EF251020D600EF324E16E000EF6
:10027800F420E26EDE50E65CE650800AD66FDE506F
:10028800800AD659D8B00AD0F251010DDA0EF324FB
:10029800D96E000EF420DA6E010E09D0F251010D6C
:1002A800DA0EF324D96E000EF420DA6E000EDF6E3B
:1002B800F251010DDA0EF324D96E000EF420DA6E35
:1002C800DF50F125F16FF22BC1D7F151D8B404D02A
:1002D800060EF119D8A408D03AAE06D0000EEE6F7B
:1002E8007A0EEF6FC40E1DD0F151D8B404D0060EAB
:1002F800F119D8A417D0000E136E000E146E000E5C
:10030800156E38C016F039C017F03AC018F0C8ECAE
:1003180007F0D8B007D0000E0001EE6F7A0EEF6F2D
:10032800440EF06F020E0001F119D8A408D0DC5178
:10033800D8B405D0DD51D8B402D04C8001D04C904F
:10034800EEC027F0EFC028F0F0C029F0F6C02AF080
:10035800F7C02BF0F8C02CF0B4EC05F027C0E5F09E
:1003680028C0E6F029C0E7F0EEC01EF0EFC01FF08D
:10037800F0C020F038C013F039C014F03AC015F0BE
:1003880027EC0AF013C01BF014C01CF015C01DF0B8
:10039800DEEC04F01BC027F01CC028F01DC029F0BB
:1003A800F3C02AF0F4C02BF0F5C02CF0B4EC05F043
:1003B80027C0E8F028C0E9F029C0EAF0E5C01BF042
:1003C800E6C01CF0E7C01DF0E8C01EF0E9C01FF051
:1003D800EAC020F0DEEC04F01BC0E2F01CC0E3F041
:1003E8001DC0E4F0EEC038F0EFC039F0F0C03AF0CC
:1003F800E2C0CFF0E3C0D0F0E4C0D1F012000B0EA1
:1004080062EC09F013C024F014C025F00D0E62EC64
:1004180009F013C026F014C027F0040E62EC09F0AE
:1004280013C028F014C029F0000E62EC09F013C0C4
:100438002AF014C02BF0010E62EC09F013C02CF066
:1004480014C02DF0020E62EC09F013C02EF014C097
:100458002FF0000E206E000E216E000E226E000E90
:10046800236E2350221007E1300E205C750E2158B0
:10047800D8B095D001D093D00B0E62EC09F013C020
:1004880024F014C025F00D0E62EC09F013C026F01C
:1004980014C027F0040E62EC09F013C028F014C051
:1004A80029F0000E62EC09F013C02AF014C02BF0FA
:1004B800010E62EC09F013C02CF014C02DF0020EEE
:1004C80062EC09F013C02EF014C02FF0000E346E49
:1004D800050E346401D059D03450020D240EF32493
:1004E800D96E000EF420DA6E3450020D800EF3241B
:1004F800E16E000EF420E26EDE50E65CE650800A03
:100508001F6EDE50800A1F58D8B00FD03450020D2D
:10051800240EF324D96E000EF420DA6E3450020D46
:10052800800EF324E16E000E28D03450020D700EB8
:10053800F324D96E000EF420DA6E3450020D240E26
:10054800F324E16E000EF420E26EDE50E65CE65025
:10055800800A1F6EDE50800A1F58D8B014D034505D
:10056800020D240EF324D96E000EF420DA6E3450F6
:10057800020D700EF324E16E000EF420E26EDECF61
:10058800E6FFDDCFE5FF342AA3D7010E2026000EB3
:100598002122222223222350221001E165D7000EB6
:1005A800346E050E346401D012003450020D800EF2
:1005B800F324D96E000EF420DA6EDECF1BF0DDCF07
:1005C8001CF03450020D700EF324D96E000EF42086
:1005D800DA6EDECF1DF0DDCF1EF01B501D24136E2A
:1005E8001C501E20146E000E166E020E156E53EC73
:1005F80008F03450020D600EF324D96E000EF4207A
:10060800DA6E13C0DEFF14C0DDFF342ACAD70B0E22
:1006180062EC09F00D0E62EC09F00B0E62EC09F0C9
:100628000D0E62EC09F00B0E62EC09F013C0BEF07F
:1006380014C0BFF00D0E62EC09F013C0C0F014C076
:10064800C1F0040E62EC09F013C0C2F014C0C3F08C
:10065800000E62EC09F013C0C4F014C0C5F0010E1E
:1006680062EC09F013C0C6F014C0C7F0020E62ECC9
:1006780009F013C0C8F014C0C9F0000E0001CE6F15
:10068800050ECE6501D01200CE51020DBE0EF32428
:10069800D96E000EF420DA6EDECF21F0DDCF22F025
:1006A800CE51020D700EF324D96E000EF420DA6ECE
:1006B800DECF23F0DDCF24F0231E241E234A242A74
:1006C800215023241B6E225024201C6ECE51020D73
:1006D800800EF324D96E000EF420DA6EDECF25F0FA
:1006E800DDCF26F0CE51020D700EF324D96E000E28
:1006F800F420DA6EDECF27F0DDCF28F0271E281E83
:10070800274A282A25502724156E26502820166E99
:10071800030E146E136853EC08F013C01DF014C0D8
:100728001EF014EC0AF00001CE51020DAE0EF324B7
:10073800D96E000EF420DA6E1BC0DEFF1CC0DDFF90
:10074800CE51020D700EF324D96E000EF420DA6E2D
:10075800CE51020DAE0EF324E16E000EF420E26ECF
:10076800DE50E65CE650800A256EDE50800A255889
:10077800D8B007D0CE51020D700EF324D96E000EFA
:1007880020D0CE51020DAE0EF324D96E000EF42007
:10079800DA6ECE51020D800EF324E16E000EF420C5
:1007A800E26EDE50E65CE650800A256EDE50800A76
:1007B8002558D8B014D0CE51020D800EF324D96E2E
:1007C800000EF420DA6ECE51020DAE0EF324E16E67
:1007D800000EF420E26EDECFE6FFDDCFE5FFCE2B84
:1007E8004FD7FFEC09F0F28EF28C8B8E020E0101CE
:1007F800106FEE0E0F6F000E126F000E116F000ECD
:10080800146F000E136F010E006F0AEC0BF010EC62
:1008180008F003EC02F08B9E81B2FED7000E0101B6
:100828000E6F310E0E6501D014D08BBE02D08B8EA8
:1008380001D08B9E090E376E1E0E366EE40EE82E22
:10084800FED7362EFCD7372EFAD700D001010E2B53
:10085800E8D79DEC0AF00009D8B4FBD785EC00F086
:10086800CFC001F1D0C002F1D1C003F101C113F032
:1008780002C114F003C115F02EEC06F013C00CF100
:1008880014C00DF14CA005D0030E0101106FE80E45
:1008980004D0020E0101106FEE0E0F6F0CC136F07E
:1008A8000DC137F0361E371E364A372A0F51362407
:1008B800116F10513720126F0C510F25136F0D5106
:1008C8001021146F12BF18D0040E125DD8A014D0D6
:1008D800010E1125086FFC0E1221096F08C136F0B0
:1008E80009C137F0361E371E364A372A13513624C7
:1008F800136F1451372035D014BF18D0040E145D6F
:10090800D8A014D0010E13250A6FFC0E14210B6F0A
:100918000AC136F00BC137F0361E371E364A372A61
:1009280011513624116F1251372038D012BF06D01A
:10093800125119E1280E115DD8B015D011C136F049
:1009480012C137F0361E371E364A372A280E36248B
:10095800066F000E3720076F06511325136F0751D6
:100968001421146F1CD014BF06D0145118E1280E9E
:10097800135DD8B014D013C136F014C137F0361E49
:10098800371E364A372A280E3624046F000E3720C1
:10099800056F04511125116F05511221126F11C1F4
:1009A80019F012C11AF013C11BF014C11CF07BEC32
:1009B8000AF04FD71DC021F0226A236A1C34213661
:1009C80001E322802150266E20C021F0226A236A8A
:1009D8001F34213601E322802150256E2650D8B4D9
:1009E8000BD02550265CD8B00ED026500008252400
:1009F800216E180E216407D01EC01BF01FC01CF00A
:100A080020C01DF012002550D8B40BD02650255C0C
:100A1800D8B00ED0255000082624216E180E216467
:100A280007D01BC01BF01CC01CF01DC01DF012001D
:100A3800060E246E1DBE248E20BE248C1C8EFF0E36
:100A48001B16FF0E1C16000E1D161F8EFF0E1E16FF
:100A5800FF0E1F16000E20162550265CD8B01BD09E
:100A6800D8901E361F362036250626502518D8B4AD
:100A78000DD0240624C021F0070E2116D8B406D0C4
:100A8800EFD7D8901D321C321B32262A2550261843
:100A9800D8B41FD0F6D72650255CD8B01AD0D89035
:100AA8001B361C361D36260626502518D8B40DD000
:100AB800240624C021F0070E2116D8B406D0EFD79B
:100AC800D89020321F321E32252A25502618D8A445
:100AD800F7D724AE0CD0FF0E1B1AFF0E1C1AFF0E00
:100AE8001D1A010E1B26000E1C22000E1D2224AC0E
:100AF8000CD0FF0E1E1AFF0E1F1AFF0E201A010E31
:100B08001E26000E1F22000E2022000E246E1B50EF
:100B18001E261C501F221D50202220AE0ED0FF0E74
:100B28001E1AFF0E1F1AFF0E201A010E1E26000E97
:100B38001F22000E2022010E246E1EC013F01FC0BB
:100B480014F020C015F026C016F024C017F01CECD5
:100B580007F013C01BF014C01CF015C01DF01200E4
:100B680029C02DF02E6A2F6A28342D3601E32E80F5
:100B78002D50306E3050D8A407D0000E276E000ECE
:100B8800286E000E296E12002CC02DF02E6A2F6AD6
:100B98002B342D3601E32E802D50356E3550D8A4D8
:100BA80007D0000E276E000E286E000E296E120068
:100BB80035507B0F302629C035F02C50351A800E61
:100BC8003516288E2B8EFF0E2A16FF0E2B16000EBA
:100BD8002C16000E316E000E326E000E336E070EAC
:100BE800346E27A006D02A5031262B5032222C50A2
:100BF8003322D890293228322732D8902A362B36F9
:100C08002C36342EEED7090E346E27A006D02A5083
:100C180031262B5032222C503322D89029322832B8
:100C28002732D890333232323132342EEED731C0B7
:100C380013F032C014F033C015F030C016F035C0D0
:100C480017F01CEC07F013C027F014C028F015C0EB
:100C580029F0120015C017F0186A196A14341736EB
:100C680001E318801750216E2150D8A409D0000E36
:100C7800136E000E146E000E156E000E166E120026
:100C8800170E176E13C018F014C019F015C01AF01B
:100C980017281B6E04D0D8901A32193218321B2E1E
:100CA800FAD718501C6E148EFF0E1316FF0E14166A
:100CB800000E151613501D6E14501E6E15501F6E23
:100CC800206A8E0E215E21AE16D02150800A8F0F29
:100CD800D8B009D0000E136E000E146E000E156EFB
:100CE800000E166E1200D89020321F321E321D32AE
:100CF800213EF9D715D0170E21640FD0000E136EC0
:100D0800000E146E000E156E000E166E1200D890AE
:100D18001D361E361F36203621062150D8A4F7D797
:100D28001C50D8B408D0201E1F1E1E1E1D6C000E9D
:100D38001E221F2220221DC013F01EC014F01FC047
:100D480015F020C016F01200C0C0C4F00001C56B39
:100D5800C66BBF35C43701E3C581C451CB6FCB51D6
:100D6800D8A407D0000EBE6F000EBF6F000EC06F74
:100D78001200C3C0C4F0C56BC66BC235C43701E3EB
:100D8800C581C451CC6FCC51D8A407D0000EBE6F1A
:100D9800000EBF6F000EC06F1200000EC86F000E6D
:100DA800C96F000ECA6FCC51890FCB5FC0C0CCF0A1
:100DB800C351CC1B800ECC17BF8FFF0EBE17FF0E82
:100DC800BF17000EC017C28FFF0EC117FF0EC21744
:100DD800000EC317180EC76FD890C837C937CA375F
:100DE800C151BE5DC251BF59C351C059D8A007D027
:100DF800C151BE5FC251BF5BC351C05BC881D890AF
:100E0800BE37BF37C037C72FE7D7C8C013F0C9C030
:100E180014F0CAC015F0CBC016F0CCC017F01CEC0B
:100E280007F013C0BEF014C0BFF015C0C0F0120028
:100E38001650D8B405D0135014101510D8A40CD0DF
:100E4800000E136E000E146E000E156E1200162A98
:100E5800D890153214321332000E1314186E000E87
:100E68001414196EFE0E15141A6E185019101A1053
:100E7800D8B40CD0ECD7162A010E1326000E142273
:100E8800000E1522D890153214321332000E1314A6
:100E9800186E000E1414196EFF0E15141A6E1850E1
:100EA80019101A10D8B406D0E6D71606D8901336FB
:100EB8001436153614BE03D0020E1660F6D716A0E7
:100EC800149ED8901632165015121750D8A4158EA5
:100ED80013C013F014C014F015C015F012004850D8
:100EE800010D900EF324D96E000EF420DA6E000E78
:100EF800DF6EABA416D04850010D900EF324D96EC6
:100F0800000EF420DA6E0001DF8201D80AD0050055
:100F1800FA6EAC51FD6EAD51FE6EF850FF6EFA5090
:100F28001200ABA216D04850010D900EF324D96ED2
:100F3800000EF420DA6E0001DF8401D80AD0050023
:100F4800FA6EAA51FD6EAB51FE6EF850FF6EFA5064
:100F580012004850010D900EF324D96E000EF420B3
:100F6800DA6EDF50D8B40DD001D8120005000001A8
:100F7800FA6EA851FD6EA951FE6EF850FF6EFA5038
:100F8800120039EC0AF0120015AE16D013C019F091
:100F980014C01AF015C01BF0191E1A1E1B1E192AA0
:100FA800000E1A221B22000E1924136E000E1A209E
:100FB800146E800E1B20156E18AE16D016C019F0D0
:100FC80017C01AF018C01BF0191E1A1E1B1E192A6A
:100FD800000E1A221B22000E1924166E000E1A206B
:100FE800176E800E1B20186E000E131A000E141AAE
:100FF800800E151A000E161A000E171A800E181AEF
:101008001650135C1750145818501558D8B002D001
:10101800D8901200D88012000B0E62EC09F013C0B1
:1010280080F014C081F080C070F081C071F00D0EA6
:1010380062EC09F013C082F014C083F082C072F031
:1010480083C073F0040E62EC09F013C084F014C07E
:1010580085F084C074F085C075F0000E62EC09F06C
:1010680013C086F014C087F086C076F087C077F08A
:10107800010E62EC09F013C088F014C089F088C032
:1010880078F089C079F0020E62EC09F013C08AF09A
:1010980014C08BF08AC07AF08BC07BF01200000E6F
:1010A800186E16AE06D0156C161ED8B0162A010E8C
:1010B800186E14AE06D0136C141ED8B0142A010E84
:1010C800181A000E1A6E000E196E15501610D8B4A4
:1010D8001CD0010E176E04D0D89015361636172A74
:1010E80016AEFAD7D89019361A361550135C165022
:1010F8001458D8A005D01550135E1650145A1980EC
:10110800D89016321532172EEDD71850D8B404D00F
:10111800196C1A1ED8B01A2A19C013F01AC014F084
:1011280012009D9AE60E136E0E0E146EE5EC0AF090
:101138009D98D00E136E130E146EE0EC0AF0080E94
:10114800B86E800EAB6E240EAC6E820EAF6E060EBD
:10115800B06E260E136E160E146EEFEC0AF0080E23
:10116800136E160E146EEAEC0AF00E0E136E160EBF
:10117800146EF4EC0AF0000E456E000E4B6E000E75
:101188004A6E080E496E000E486E000E476E000E3D
:10119800466E9D8A120018BE08D0040E185CD8A0AE
:1011A80004D0030E186E17680BD018AE09D01704B8
:1011B800FC0E1858D8B004D0FC0E186E010E176E2D
:1011C80018BE03D08C808C9406D08C908C84176CBD
:1011D800181ED8B0182A17C013F018C014F0B6ECAF
:1011E80009F0120018BE08D0040E185CD8A004D06C
:1011F800030E186E17680BD018AE09D01704FC0E32
:101208001858D8B004D0FC0E186E010E176E18BE10
:1012180003D08B868B9406D08B968B84176C181E04
:10122800D8B0182A17C013F018C014F0CFEC09F082
:101238001200020EF66E160EF76E000EF86E00EE35
:10124800F3F010EE06F00900F5CFEEFFE550E1509F
:10125800FAE100EE60F05E0EEE6AE806FDE14C6A27
:1012680000EE38F0140EEE6AE806FDE14D904D925E
:10127800000EF86E0001F5EF03F0000E8D6E000E03
:101288008C6E000E896E020E8A6E000E8B6E030E37
:10129800966E92689368310E946EE80E956E0F0103
:1012A8003B693C0E3A6F380E396F070E3C6F2F0EB4
:1012B800386F000E616EF18EF2861200176E17C03D
:1012C80015F015461546C2501518830B1518C26E31
:1012D800050EE82EFED700F0C280C282C2B2FED749
:1012E800C450166E156AC3501524136E000E1620CE
:1012F800146E1200000E246E22AE06D0216C221E3F
:10130800D8B0222A010E246E21C013F022C014F096
:10131800156A8E0E166E24C017F01CEC07F013C069
:1013280021F014C022F015C023F01200F292F18CC3
:10133800240E136E160E146EDBEC0AF0F288F09091
:10134800F19A220E136E160E146ED6EC0AF0F08681
:10135800F092F198200E136E160E146ED1EC0AF06E
:10136800F088120013C015F014C016F0D890163289
:101378001532D8901632153215500F01586F13C018
:1013880015F0030E1516153AF00E15165751CF0B1A
:101398001510576F120013C015F014C016F0D8902E
:1013A80016321532D8901632153215500F01556F76
:1013B80013C015F0030E1516153AF00E15165451F4
:1013C800CF0B1510546F1200080E496012D04A5006
:1013D800010DA00EF324D96E000EF420DA6EDF5052
:1013E800AD6E4A2A070E4A6402D0000E4A6E492A98
:1013F80012009D9812000CEC0BF041EC09F0B8ECCF
:101408000AF088EC0AF0A6EC0AF0AFEC0AF093ECCC
:101418000AF0CAEC0AF09AEC09F095EC08F0120010
:101428001B501D02F3CF1FF0F4CF20F01B501E02FB
:10143800F35020261C501D02F35020261FC01BF01D
:1014480020C01CF01200135014101510D8B406D088
:10145800000E131A000E141A800E151A13C013F07A
:1014680014C014F015C015F012004850010D980E64
:10147800F324D96E000EF420DA6EAECFDFFF482ACF
:10148800070E486402D0000E486E462A12003B50F0
:101498003C10D8B4120001D812000500FA6E3B5077
:1014A800FD6E3C50FE6EF850FF6EFA5012003D5033
:1014B8003E10D8B4120001D812000500FA6E3D5053
:1014C800FD6E3E50FE6EF850FF6EFA5012003F500F
:1014D8004010D8B4120001D812000500FA6E3F502F
:1014E800FD6E4050FE6EF850FF6EFA50120019C0A3
:1014F80017F01AC018F0F6EC08F01BC017F01CC063
:1015080018F0CFEC08F01200010EC26E000EC16E8A
:10151800860EC06E000EC36E000EC46E12003C0E26
:101528000F01546F3F0E556F000E566FF30E48179C
:101538001200000E7EB0010E136E1350D8A47E90D8
:1015480013501200D80E0F01526F000E536F7E9089
:10155800650E516F12003C0E0F01576F5869000E4F
:10156800596FFC0E48171200700ED36E040ED26E1F
:10157800400E9B6ED2BE1200FDD7F0908BBE02D0FB
:101588008B8E01D08B9E5BEC0AF01200BB68000EBC
:10159800BC6E9E92050EBA6E120013C03BF014C0CA
:1015A8003CF0120013C03DF014C03EF0120013C00E
:1015B8003FF014C040F0120013C043F014C044F0D0
:1015C800120013C041F014C042F0120013C0AAF078
:1015D80014C0ABF0120013C0ACF014C0ADF0120090
:1015E80013C0A8F014C0A9F01200F0924BEC0AF056
:1015F8001200F2926BEC0AF01200002041CD4C3F31
:10160800AB98AB88120039EC0AF012008B821200FA
:10161800D09E1200F2901200120012001200120066
:020000040020DA
:08000000FFFFFFFFFFFFFFFF00
:020000040030CA
:0E000000FF381F3CFFBF85FF0FC00FE00F4011
:00000001FF
